:020000040000fa
:080000000002040000000000f2
:020000040000fa
:04000800c20300002f
:020000040000fa
:04000c00920300005b
:020000040000fa
:040010009803000051
:020000040000fa
:040014009e03000047
:020000040000fa
:04001800a40300003d
:020000040000fa
:04001c00c20300001b
:020000040000fa
:04002000c203000017
:020000040000fa
:04002400c203000013
:020000040000fa
:04002800c20300000f
:020000040000fa
:04002c00c20300000b
:020000040000fa
:04003000c203000007
:020000040000fa
:040034006403000061
:020000040000fa
:04003800c2030000ff
:020000040000fa
:04003c00c2030000fb
:020000040000fa
:04004000c2030000f7
:020000040000fa
:04004400c2030000f3
:020000040000fa
:04004800c2030000ef
:020000040000fa
:04004c00c2030000eb
:020000040000fa
:04005000c2030000e7
:020000040000fa
:0400540004030000a1
:020000040000fa
:04005800c2030000df
:020000040000fa
:04005c00c2030000db
:020000040000fa
:04006000c2030000d7
:020000040000fa
:04006400c2030000d3
:020000040000fa
:04006800c2030000cf
:020000040000fa
:04006c00c2030000cb
:020000040000fa
:04007000c2030000c7
:020000040000fa
:04007400c2030000c3
:020000040000fa
:04007800c2030000bf
:020000040000fa
:04007c00c2030000bb
:020000040000fa
:04008000c2030000b7
:020000040000fa
:04008400c2030000b3
:020000040000fa
:04008800c2030000af
:020000040000fa
:04008c00c2030000ab
:020000040000fa
:04009000c2030000a7
:020000040000fa
:04009400c2030000a3
:020000040000fa
:04009800c20300009f
:020000040000fa
:04009c00c20300009b
:020000040000fa
:0400a000c203000097
:020000040000fa
:0400a400c203000093
:020000040000fa
:0400a800c20300008f
:020000040000fa
:0400ac00c20300008b
:020000040000fa
:0400b000c203000087
:020000040000fa
:0400b400c203000083
:020000040000fa
:0400b800c20300007f
:020000040000fa
:0400bc00c20300007b
:020000040000fa
:0400c000c203000077
:020000040000fa
:0400c400c203000073
:020000040000fa
:0400c800c20300006f
:020000040000fa
:0400cc00c20300006b
:020000040000fa
:0400d000c203000067
:020000040000fa
:0400d400c203000063
:020000040000fa
:0400d800c20300005f
:020000040000fa
:0400dc00c20300005b
:020000040000fa
:0400e000c203000057
:020000040000fa
:0400e400c203000053
:020000040000fa
:0400e800c20300004f
:020000040000fa
:0400ec00c20300004b
:020000040000fa
:0400f000c203000047
:020000040000fa
:0400f400c203000043
:020000040000fa
:0400f800c20300003f
:020000040000fa
:0400fc00c20300003b
:020000040000fa
:04010000c203000036
:020000040000fa
:04010400c203000032
:020000040000fa
:04010800c20300002e
:020000040000fa
:04010c00c20300002a
:020000040000fa
:04011000c203000026
:020000040000fa
:04011400c203000022
:020000040000fa
:04011800c20300001e
:020000040000fa
:04011c00c20300001a
:020000040000fa
:04012000c203000016
:020000040000fa
:04012400c203000012
:020000040000fa
:04012800c20300000e
:020000040000fa
:04012c005a03000072
:020000040000fa
:04013000c203000006
:020000040000fa
:04013400c203000002
:020000040000fa
:04013800c2030000fe
:020000040000fa
:04013c00c2030000fa
:020000040000fa
:04014000c2030000f6
:020000040000fa
:04014400c2030000f2
:020000040000fa
:04014800c2030000ee
:020000040000fa
:04014c00c2030000ea
:020000040000fa
:04015000c2030000e6
:020000040000fa
:04015400c2030000e2
:020000040000fa
:04015800c2030000de
:020000040000fa
:04015c00c2030000da
:020000040000fa
:04016000c2030000d6
:020000040000fa
:04016400c2030000d2
:020000040000fa
:04016800c2030000ce
:020000040000fa
:04016c00c2030000ca
:020000040000fa
:04017000c2030000c6
:020000040000fa
:04017400c2030000c2
:020000040000fa
:04017800c2030000be
:020000040000fa
:04017c00c2030000ba
:020000040000fa
:04018000c2030000b6
:020000040000fa
:04018400c2030000b2
:020000040000fa
:04018800c2030000ae
:020000040000fa
:04018c00c2030000aa
:020000040000fa
:04019000c2030000a6
:020000040000fa
:04019400c2030000a2
:020000040000fa
:04019800c20300009e
:020000040000fa
:04019c00c20300009a
:020000040000fa
:0401a000c203000096
:020000040000fa
:0401a400c203000092
:020000040000fa
:0401a800c20300008e
:020000040000fa
:0401ac00c20300008a
:020000040000fa
:0401b000c203000086
:020000040000fa
:0401b400c203000082
:020000040000fa
:0401b800c20300007e
:020000040000fa
:04020800c20300002d
:020000040000fa
:04020c00aa03000041
:020000040000fa
:04021000b003000037
:020000040000fa
:04021400b60300002d
:020000040000fa
:04021800bc03000023
:020000040000fa
:04021c00c203000019
:020000040000fa
:04022000c203000015
:020000040000fa
:04022400c203000011
:020000040000fa
:04022800c20300000d
:020000040000fa
:04022c00c203000009
:020000040000fa
:04023000c203000005
:020000040000fa
:04023400640300005f
:020000040000fa
:04023800c2030000fd
:020000040000fa
:04023c00c2030000f9
:020000040000fa
:04024000c2030000f5
:020000040000fa
:04024400c2030000f1
:020000040000fa
:04024800c2030000ed
:020000040000fa
:04024c00c2030000e9
:020000040000fa
:04025000c2030000e5
:020000040000fa
:04025400040300009f
:020000040000fa
:04025800c2030000dd
:020000040000fa
:04025c00c2030000d9
:020000040000fa
:04026000c2030000d5
:020000040000fa
:04026400c2030000d1
:020000040000fa
:04026800c2030000cd
:020000040000fa
:04026c00c2030000c9
:020000040000fa
:04027000c2030000c5
:020000040000fa
:04027400c2030000c1
:020000040000fa
:04027800c2030000bd
:020000040000fa
:04027c00c2030000b9
:020000040000fa
:04028000c2030000b5
:020000040000fa
:04028400c2030000b1
:020000040000fa
:04028800c2030000ad
:020000040000fa
:04028c00c2030000a9
:020000040000fa
:04029000c2030000a5
:020000040000fa
:04029400c2030000a1
:020000040000fa
:04029800c20300009d
:020000040000fa
:04029c00c203000099
:020000040000fa
:0402a000c203000095
:020000040000fa
:0402a400c203000091
:020000040000fa
:0402a800c20300008d
:020000040000fa
:0402ac00c203000089
:020000040000fa
:0402b000c203000085
:020000040000fa
:0402b400c203000081
:020000040000fa
:0402b800c20300007d
:020000040000fa
:0402bc00c203000079
:020000040000fa
:0402c000c203000075
:020000040000fa
:0402c400c203000071
:020000040000fa
:0402c800c20300006d
:020000040000fa
:0402cc00c203000069
:020000040000fa
:0402d000c203000065
:020000040000fa
:0402d400c203000061
:020000040000fa
:0402d800c20300005d
:020000040000fa
:0402dc00c203000059
:020000040000fa
:0402e000c203000055
:020000040000fa
:0402e400c203000051
:020000040000fa
:0402e800c20300004d
:020000040000fa
:0402ec00c203000049
:020000040000fa
:0402f000c203000045
:020000040000fa
:0402f400c203000041
:020000040000fa
:0402f800c20300003d
:020000040000fa
:0402fc00c203000039
:020000040000fa
:04030000c203000034
:020000040000fa
:04030400c203000030
:020000040000fa
:04030800c20300002c
:020000040000fa
:04030c00c203000028
:020000040000fa
:04031000c203000024
:020000040000fa
:04031400c203000020
:020000040000fa
:04031800c20300001c
:020000040000fa
:04031c00c203000018
:020000040000fa
:04032000c203000014
:020000040000fa
:04032400c203000010
:020000040000fa
:04032800c20300000c
:020000040000fa
:04032c005a03000070
:020000040000fa
:04033000c203000004
:020000040000fa
:04033400c203000000
:020000040000fa
:04033800c2030000fc
:020000040000fa
:04033c00c2030000f8
:020000040000fa
:04034000c2030000f4
:020000040000fa
:04034400c2030000f0
:020000040000fa
:04034800c2030000ec
:020000040000fa
:04034c00c2030000e8
:020000040000fa
:04035000c2030000e4
:020000040000fa
:04035400c2030000e0
:020000040000fa
:04035800c2030000dc
:020000040000fa
:04035c00c2030000d8
:020000040000fa
:04036000c2030000d4
:020000040000fa
:04036400c2030000d0
:020000040000fa
:04036800c2030000cc
:020000040000fa
:04036c00c2030000c8
:020000040000fa
:04037000c2030000c4
:020000040000fa
:04037400c2030000c0
:020000040000fa
:04037800c2030000bc
:020000040000fa
:04037c00c2030000b8
:020000040000fa
:04038000c2030000b4
:020000040000fa
:04038400c2030000b0
:020000040000fa
:04038800c2030000ac
:020000040000fa
:04038c00c2030000a8
:020000040000fa
:04039000c2030000a4
:020000040000fa
:04039400c2030000a0
:020000040000fa
:04039800c20300009c
:020000040000fa
:04039c00c203000098
:020000040000fa
:0403a000c203000094
:020000040000fa
:0403a400c203000090
:020000040000fa
:0403a800c20300008c
:020000040000fa
:0403ac00c203000088
:020000040000fa
:0403b000c203000084
:020000040000fa
:0403b400c203000080
:020000040000fa
:0403b800c20300007c
:020000040000fa
:100400000f9a21000eff27000e0188000000000057
:10041000000020000000e000020032000001200087
:100420002002880014000700f90007000000e00027
:1004300003003a00c0b12000010020000200370094
:100440000000200001002000810f70000100320038
:1004500014000700000020000000e000020032004d
:1004600000000200000000009209020000000000ed
:100470000040da000000fe004440a90020002000f7
:100480000000e0000300320010002000900188000e
:100490004440a800000006008a1f78008b1f7800e7
:1004a00000000600a1028800800478000000eb0034
:1004b0001f003700e284440054a0b4009905ba003c
:1004c000e284440054a0b4009906ba00e2844400d7
:1004d00054a0b4000006eb00476fde00fd07b20039
:1004e000ae018800636ce10003003a00eaff0700f8
:1004f0000000eb000e003700606ce10008003a00dd
:10050000004deb000a05e800020039003420ec0041
:100510000af0a0008b05e900f9ff3e000400370057
:100520006168e100010032000086eb000b0007006b
:1005300019c7ba001905ba000e04e00003003a001a
:100540000a00e000dbff3a0000000600fe07b200f0
:10055000ae0288008a047800f5ff37000cd0a300b3
:10056000e20f4d001c00390089027800354dba00b9
:100570000a05e800020039003420ec000af0a0006f
:100580008b05e9000f003200254dba000a05e8008e
:10059000020039003420ec000af0a0008b05e900cd
:1005a000080032000c00e0000600320015cdba0051
:1005b0000a05e800020039003420ec000af0a0002f
:1005c0008b05e9008984e80054a0b4000b00e0002a
:1005d000e2ff3a00000006009902ba00055d7800cb
:1005e0008b05e900f7ff3200c82ade00055d7800c0
:1005f0008b05e900f3ff32000c00e000f1ff320050
:1006000019ddba00eeff3700809fbe00821f780020
:100610003200f8003400f80010002000a00188002b
:1006200010002000900188000200fa0030118000c4
:10063000004078000ce8b700100280004500de00a2
:1006400067406000004f780011028000000e20001b
:10065000010070001002880000000000424080008d
:100660006000b80020119800311198001e407800f9
:10067000674060000080fb00670060004500dd000f
:1006800012028000f1f12f00810061000100700072
:1006900010028800000000008560a9000080fa00b8
:1006a0003400f9003200f9004f0178004f00be001d
:1006b000004006000000fa002222a9008c20a900b8
:1006c0000080fa00004006003600f800809fbe005f
:1006d000829fbe00849fbe00869fbe003200f8004d
:1006e0003400f80010002000a00188001000200055
:1006f000900188000000fa00870307008460a900c9
:100700000080fa003400f9003200f9004f03be0007
:100710004f02be004f01be004f00be003600f90080
:10072000004006000000fa008020a900ffff37000b
:100730000000fa008060a900ffff37000000fa0007
:100740008040a900ffff37000000fa008080a90068
:10075000ffff37000000fa008020a900ffff3700ec
:100760000000fa008060a900ffff37000000fa00d7
:100770008040a900ffff37000000fa008080a90038
:10078000ffff37000040da000000fe00889fbe0037
:1007900080047800f04c80000000e00004003a0083
:1007a0000e0007000084eb000000e00008003500a8
:1007b000f84c80000900e000050032000900440008
:1007c000060007000000e00001003d000084eb008f
:1007d000080078004f04be0000000600800078008a
:1007e0000100e00003003a00009a2000f04c88006d
:1007f000000005000080eb00029a2100828f50006b
:1008000002003e00f14c88000000eb0000000600f2
:10081000000005000098be000298be000498be00cb
:100820000698be000898be000a98be000c98be004c
:100830000e18780064985700efb8970001187800f8
:10084000ffb8970001187800000005000100e000e3
:1008500001003a0011002000010878007c004000ef
:1008600030077800b0077800b01f7800a01f78002c
:10087000640050004006be004005be004004be00bb
:100880004003be004002be004001be004000be006a
:1008900000000600889fbe0000047800c14c800064
:1008a0000100e00002003200010078000d00370076
:1008b000d14c8000a099200004003700910f540013
:1008c000250036000180e800910090000100e00062
:1008d000faff3a0010003700920f54001e00360055
:1008e0000280e800100178000200e000faff3a0000
:1008f00011017800d14c8000a0992000040037003d
:10090000910f5400140036000180e800910090001f
:10091000828f5000faff3a00e94c8000888f540023
:1009200001003100880478000900780036000700d3
:100930000000e00004003a00888f540005003200f7
:100940008904d100f5ff3700091878003800070046
:10095000d2ff37000000eb004f04be00000006008d
:10096000881f7800630440000800a1008000eb00ad
:10097000800f540021003600e30f540001003e00b8
:100980004800200008007800c2ff07008000eb004c
:100990000000e0001900320090007800910178001a
:1009a00064815100880f5100030031001101900053
:1009b000020878000700370008814000020878002c
:1009c00091019000130198001001780011091400a2
:1009d00088087800100178000000eb000200e000b9
:1009e00004003200920190000300e0000100320098
:1009f0000280e800c04c88008180e8000100780097
:100a00004f04780000000600800078000000eb0032
:100a10000100e00005003400010078005bff0700e2
:100a2000e10f400001003a000000eb00000006006a
:100a30000000e0002f003200c0017800e38f510079
:100a40002c0036000308a3002a003a00d14c800095
:100a50000100e00002003200810f5000040031006c
:100a600011009800d04c88001600370082007800f2
:100a7000110190000200e00002003200800f5100de
:100a8000faff39001102780084824000850f50007f
:100a900018003900808f520003003a00830842009a
:100aa00001007800070037000200e0000300320078
:100ab00083014000830f51000e003900120098009e
:100ac00090009800900090000100e00009003200c2
:100ad00010014000828f500006003a0082992000e9
:100ae0000009eb001001780011084100910090000e
:080af00011009800000006004f
:020000040000fa
:100af8000000fa00213a8000f0f32f000080600027
:100b0800203a8800213a8000f08f2f000080600092
:100b1800203a880044a7a800ed04a900f102a90022
:100b28002135800000fc2f0000806000b000b30079
:100b3800203588008136800000fc2f00008060008e
:100b48003000b300803688002062a8002002200010
:100b58004011880021e2a8002342a8008560a9006e
:100b68009560a8008c20a9009c20a80000002800ff
:100b780020088800f0e72300100888008460a90096
:100b88009460a800a01780004800de006140600063
:100b980000c0ea00614060000080fb006100600066
:100ba8004800dd00a11780000180a100010070004d
:100bb800a01788000080fa00000006000200fa0072
:100bc800004f780000000000111180000020200074
:100bd800008060000000e000fbff3a001e80fb0080
:100be800201188000080fa00000006000400fa00c6
:100bf800881f78000040eb00004f78009e80fb00c3
:100c0800c00220000088b9008000780060832000be
:100c18000080400001102000010878009e80fb0041
:100c2800c00220000088b90080007800e080200021
:100c380000804000b04c8800b84c8000b04c800068
:100c48004010900044ff07005014980010028000e4
:100c58004500de00674060001047980011028000e0
:100c6800000e200001007000100288000000000043
:100c7800b24c80006000b800201198003111980033
:100c88001e409000674060000080fb006700600025
:100c98004500dd0012028000f1f12f0081006100a3
:100ca800010070001002880000000000e09620009b
:100cb800d6fe07000000e0000f003a000080eb00bd
:100cc80000018800b04c800050109000f0008800af
:100cd800b04c80005010900080007800b04c80002c
:100ce800401090000080400064005000000188001f
:100cf800b04c80009a000700904c800000018800ea
:100d08009e80fb00c00220000088b90080007800a7
:100d1800e080200000804000404088001e4fe8002e
:100d28009e80fb00c00220000088b9008000780087
:100d38006083200000804000011020000108780036
:100d48009e80fb00c00220000088b9008000780067
:100d5800e080200000804000b04c8800b84c800043
:100d6800b04c800040109000fbfe07005014980023
:100d7800100280004500de006740600020479800b0
:100d880011028000000e200001007000100288008f
:100d980000000000b24c80006000b80020119800ec
:100da800311198002e409000674060000080fb00e1
:100db800670060004500dd0012028000f1f12f009d
:100dc800810061000100700010028800000000002e
:100dd800e09620008dfe07000000e0000f003a00ba
:100de8000080eb0000018800b04c8000501090009b
:100df800f0008800b04c800050109000800078000f
:100e0800b04c80004010900000804000640050000a
:100e180000018800b04c8000cb000700904c800097
:100e2800000188001e4fe8009e80fb00c0022000e1
:100e38000088b900800078006083200000804000ae
:100e480001102000010878009e80fb00c0022000ed
:100e58000088b90080007800e08020000080400011
:100e6800b04c8800b84c8000b04c80004010900016
:100e7800b9fe070050149800100280004500de00fb
:100e8800674060003047980011028000000e200083
:100e9800010070001002880000000000b24c8000c1
:100ea8006000b80020119800311198003e40900071
:100eb800674060000080fb00670060004500dd00bf
:100ec80012028000f1f12f00810061000100700022
:100ed8001002880000000000e09620004bfe07008a
:100ee8000000e0000f003a000080eb0000018800dd
:100ef800b04c800050109000f0008800b04c80008a
:100f08005010900080007800b04c80004010900095
:100f1800008040006400500000018800b04c800050
:100f2800c5000700904c8000000188009e80fb00ef
:100f3800c00220000088b90080007800e08020000e
:100f480000804000504088001e4fe8004099200073
:100f58001e4878004f0478000080fa000000060060
:100f68000600fa00200798000040eb00004f7800c8
:100f78000cc8bf000004e00047003400c180200016
:100f880091407800c0c4b30080cf500003003a00fd
:100f980010c0b3000de8b7003c003700c180200046
:100fa8009140780040c4b30080cf50001a003a0046
:100fb800100280004500de0067406000104798007e
:100fc80011028000000e200001007000100288004d
:100fd80000000000524080000080eb008080eb00a1
:100fe80020119800311198001e4090006740600061
:100ff8000080fb00670060004500dd0012028000f1
:10100800f1f12f00810061000100700010028800da
:10101800000000001d003700c180200091407800ca
:1010280050c4b30080cf500018003a00100280006e
:101038004500de00674060002047980011028000ec
:10104800000e20000100700010028800000000005f
:10105800524080006000b8002011980031119800bb
:101068002e409000674060000080fb006700600031
:101078004500dd0012028000f1f12f0081006100bf
:101088000100700010028800000000000cc8bf00ba
:10109800cafe07000c68ef001e4fe800100280002f
:1010a8004500de006740600030479800110280006c
:1010b800000e2000010070001002880000000000ef
:1010c800b24c80000080eb008080eb00201198007b
:1010d800311198003e409000674060000080fb009e
:1010e800670060004500dd0012028000f1f12f006a
:1010f80081006100010070001002880000000000fb
:10110800b04c8000c1fd07000000e00005003a0077
:101118000080eb000001880011002000e09620000c
:10112800c8fd0700b04c8000501090008000780087
:10113800b04c8000401090000080400064005000d7
:10114800000188008aff37000400fa0010079800a1
:101158000dc8bf000004e0000d0034000d68ef006a
:10116800a01780004800de006140600000c0ea006f
:10117800614060000080fb00610060004800dd0005
:10118800a11780000180a10001007000a01788004d
:10119800100280004500de0067406000004f7800c4
:1011a80011028000000e200001007000100288006b
:1011b80000000000b24c80006000b80020119800c8
:1011c800311198001e407800674060000080fb00e5
:1011d800670060004500dd0012028000f1f12f0079
:1011e800810061000100700010028800000000000a
:1011f800b04c800085fd07000000e00005003a00c3
:101208000080eb000001880011002000e09620001b
:101218008cfd0700b04c80005010900080007800d2
:10122800b04c8000401090000080400064005000e6
:1012380000018800c6ff37000400fa001007980074
:10124800a01780004800de006140600000c0ea008e
:10125800614060000080fb00610060004800dd0024
:10126800a11780000180a10001007000a01788006c
:10127800100280004500de0067406000004f7800e3
:1012880011028000000e200001007000100288008a
:1012980000000000b24c8000401f20000100200028
:1012a80020119800311198001e40780067406000b6
:1012b8000080fb00670060004500dd00120280002e
:1012c800f1f12f0081006100010070001002880018
:1012d80000000000b04c80004cfd07000000e0005a
:1012e80005003a000080eb00000188001100200092
:1012f800e096200053fd0700b04c8000501090008d
:1013080080007800b04c80004010900000804000c1
:101318006400500000018800c9ff37000800fa0087
:1013280000018000904c8800409920008040eb002c
:1013380001487800100280004500de006740600028
:101348001047980011028000000e20000100700074
:101358001002880000000000e5fd070023fe0700da
:101368001e409000674060000080fb00670060003e
:101378004500dd0012028000f1f12f0081006100bc
:101388000100700010028800000000000040eb001f
:10139800004f780037003700100280004500de005b
:1013a800674060002047980011028000000e20006e
:1013b8000100700010028800000000009e80fb0001
:1013c800c00220000088b900000078004102200017
:1013d80080804000e0802000008040001001be00b6
:1013e80022079800330798002e409000674060005d
:1013f8000080fb00670060004500dd0012028000ed
:10140800f1f12f00810061000100700010028800d6
:10141800000000002e009000be009000e00f500079
:10142800e08f580012003a009e80fb00c0022000a6
:101438000088b90080007800e0802000008040002b
:10144800b04c8800e0962000f0fc07000000e000a7
:1014580005003a000080eb0000018800b04c8000d5
:1014680011002000f7fc0700904c80000001880064
:101478001e4fe80040992000104078009e4f500011
:10148800c5ff3e00c1ff37000a00fa0010028000c5
:101498004500de0067406000004f780011028000c0
:1014a800000e2000010070001002880000000000fb
:1014b800008020003002be002003be001407980000
:1014c8002507980036079800470798001e407800bf
:1014d800674060000080fb00670060004500dd0099
:1014e80012028000f1f12f008100610001007000fc
:1014f80010028800000000001e009000ae0090005e
:101508003e019000ce0190000080fa000000060025
:101518000200fa00008020003002be002003be0056
:1015280010002000010020006011b80000004200f7
:1015380081804a0002014b0083814b000480200017
:10154800009abe000292be000040eb00004f7800f7
:1015580032003700100280004500de00674060005e
:101568001047980011028000000e20000100700052
:1015780010028800000000009e80fb00c0022000ce
:101588000088b900000078004102200080804000f7
:10159800e0802000008040001000be00e00f5000f6
:1015a800e08f5800110034001e81fb00c0022000ab
:1015b8000090b900000078004102200080804000bf
:1015c800e0802000008040001000be006100500054
:1015d800e0805800c30220000391b900820178001e
:1015e80022832000028141000089be001e40900035
:1015f800674060000080fb00670060004500dd0078
:1016080012028000f1f12f008100610001007000da
:1016180010028800000000001e4fe8001e407800fd
:10162800e74f5000cbff36000080fa0000000600ac
:020000040000fa
:101638000e0800008a010000800000000008000079
:1016480008000000800000000808000006000000f4
:10165800800000009c0900000200000082000000d9
:101668000400000098090000040000008000000049
:101678009e09000002000000800000000000000039
:020000040000fa
:020000040005f5
:0457f400ffff0000b3
:020000040000fa
:020000040005f5
:0457f8009f99000075
:020000040000fa
:020000040005f5
:0457fc007f3f0000eb
:00000001FF
