:020000040000fa
:080000000002040000000000f2
:020000040000fa
:04000800740300007d
:020000040000fa
:04000c0044030000a9
:020000040000fa
:040010004a0300009f
:020000040000fa
:040014005003000095
:020000040000fa
:04001800560300008b
:020000040000fa
:04001c007403000069
:020000040000fa
:040020007403000065
:020000040000fa
:040024007403000061
:020000040000fa
:04002800740300005d
:020000040000fa
:04002c007403000059
:020000040000fa
:040030007403000055
:020000040000fa
:040034007403000051
:020000040000fa
:04003800740300004d
:020000040000fa
:04003c007403000049
:020000040000fa
:040040007403000045
:020000040000fa
:040044007403000041
:020000040000fa
:04004800740300003d
:020000040000fa
:04004c007403000039
:020000040000fa
:040050007403000035
:020000040000fa
:0400540004030000a1
:020000040000fa
:04005800740300002d
:020000040000fa
:04005c007403000029
:020000040000fa
:040060007403000025
:020000040000fa
:040064007403000021
:020000040000fa
:04006800740300001d
:020000040000fa
:04006c007403000019
:020000040000fa
:040070007403000015
:020000040000fa
:040074007403000011
:020000040000fa
:04007800740300000d
:020000040000fa
:04007c007403000009
:020000040000fa
:040080007403000005
:020000040000fa
:040084007403000001
:020000040000fa
:0400880074030000fd
:020000040000fa
:04008c0074030000f9
:020000040000fa
:0400900074030000f5
:020000040000fa
:0400940074030000f1
:020000040000fa
:0400980074030000ed
:020000040000fa
:04009c0074030000e9
:020000040000fa
:0400a00074030000e5
:020000040000fa
:0400a40074030000e1
:020000040000fa
:0400a80074030000dd
:020000040000fa
:0400ac0074030000d9
:020000040000fa
:0400b00074030000d5
:020000040000fa
:0400b40074030000d1
:020000040000fa
:0400b80074030000cd
:020000040000fa
:0400bc0074030000c9
:020000040000fa
:0400c00074030000c5
:020000040000fa
:0400c40074030000c1
:020000040000fa
:0400c80074030000bd
:020000040000fa
:0400cc0074030000b9
:020000040000fa
:0400d00074030000b5
:020000040000fa
:0400d40074030000b1
:020000040000fa
:0400d80074030000ad
:020000040000fa
:0400dc0074030000a9
:020000040000fa
:0400e00074030000a5
:020000040000fa
:0400e40074030000a1
:020000040000fa
:0400e800740300009d
:020000040000fa
:0400ec007403000099
:020000040000fa
:0400f0007403000095
:020000040000fa
:0400f4007403000091
:020000040000fa
:0400f800740300008d
:020000040000fa
:0400fc007403000089
:020000040000fa
:040100007403000084
:020000040000fa
:040104007403000080
:020000040000fa
:04010800740300007c
:020000040000fa
:04010c007403000078
:020000040000fa
:040110007403000074
:020000040000fa
:040114007403000070
:020000040000fa
:04011800740300006c
:020000040000fa
:04011c007403000068
:020000040000fa
:040120007403000064
:020000040000fa
:040124007403000060
:020000040000fa
:04012800740300005c
:020000040000fa
:04012c0026030000a6
:020000040000fa
:040130007403000054
:020000040000fa
:040134007403000050
:020000040000fa
:04013800740300004c
:020000040000fa
:04013c007403000048
:020000040000fa
:040140007403000044
:020000040000fa
:040144007403000040
:020000040000fa
:04014800740300003c
:020000040000fa
:04014c007403000038
:020000040000fa
:040150007403000034
:020000040000fa
:040154007403000030
:020000040000fa
:04015800740300002c
:020000040000fa
:04015c007403000028
:020000040000fa
:040160007403000024
:020000040000fa
:040164007403000020
:020000040000fa
:04016800740300001c
:020000040000fa
:04016c007403000018
:020000040000fa
:040170007403000014
:020000040000fa
:040174007403000010
:020000040000fa
:04017800740300000c
:020000040000fa
:04017c007403000008
:020000040000fa
:040180007403000004
:020000040000fa
:040184007403000000
:020000040000fa
:0401880074030000fc
:020000040000fa
:04018c0074030000f8
:020000040000fa
:0401900074030000f4
:020000040000fa
:0401940074030000f0
:020000040000fa
:0401980074030000ec
:020000040000fa
:04019c0074030000e8
:020000040000fa
:0401a00074030000e4
:020000040000fa
:0401a40074030000e0
:020000040000fa
:0401a80074030000dc
:020000040000fa
:0401ac0074030000d8
:020000040000fa
:0401b00074030000d4
:020000040000fa
:0401b40074030000d0
:020000040000fa
:0401b80074030000cc
:020000040000fa
:04020800740300007b
:020000040000fa
:04020c005c0300008f
:020000040000fa
:040210006203000085
:020000040000fa
:04021400680300007b
:020000040000fa
:040218006e03000071
:020000040000fa
:04021c007403000067
:020000040000fa
:040220007403000063
:020000040000fa
:04022400740300005f
:020000040000fa
:04022800740300005b
:020000040000fa
:04022c007403000057
:020000040000fa
:040230007403000053
:020000040000fa
:04023400740300004f
:020000040000fa
:04023800740300004b
:020000040000fa
:04023c007403000047
:020000040000fa
:040240007403000043
:020000040000fa
:04024400740300003f
:020000040000fa
:04024800740300003b
:020000040000fa
:04024c007403000037
:020000040000fa
:040250007403000033
:020000040000fa
:04025400040300009f
:020000040000fa
:04025800740300002b
:020000040000fa
:04025c007403000027
:020000040000fa
:040260007403000023
:020000040000fa
:04026400740300001f
:020000040000fa
:04026800740300001b
:020000040000fa
:04026c007403000017
:020000040000fa
:040270007403000013
:020000040000fa
:04027400740300000f
:020000040000fa
:04027800740300000b
:020000040000fa
:04027c007403000007
:020000040000fa
:040280007403000003
:020000040000fa
:0402840074030000ff
:020000040000fa
:0402880074030000fb
:020000040000fa
:04028c0074030000f7
:020000040000fa
:0402900074030000f3
:020000040000fa
:0402940074030000ef
:020000040000fa
:0402980074030000eb
:020000040000fa
:04029c0074030000e7
:020000040000fa
:0402a00074030000e3
:020000040000fa
:0402a40074030000df
:020000040000fa
:0402a80074030000db
:020000040000fa
:0402ac0074030000d7
:020000040000fa
:0402b00074030000d3
:020000040000fa
:0402b40074030000cf
:020000040000fa
:0402b80074030000cb
:020000040000fa
:0402bc0074030000c7
:020000040000fa
:0402c00074030000c3
:020000040000fa
:0402c40074030000bf
:020000040000fa
:0402c80074030000bb
:020000040000fa
:0402cc0074030000b7
:020000040000fa
:0402d00074030000b3
:020000040000fa
:0402d40074030000af
:020000040000fa
:0402d80074030000ab
:020000040000fa
:0402dc0074030000a7
:020000040000fa
:0402e00074030000a3
:020000040000fa
:0402e400740300009f
:020000040000fa
:0402e800740300009b
:020000040000fa
:0402ec007403000097
:020000040000fa
:0402f0007403000093
:020000040000fa
:0402f400740300008f
:020000040000fa
:0402f800740300008b
:020000040000fa
:0402fc007403000087
:020000040000fa
:040300007403000082
:020000040000fa
:04030400740300007e
:020000040000fa
:04030800740300007a
:020000040000fa
:04030c007403000076
:020000040000fa
:040310007403000072
:020000040000fa
:04031400740300006e
:020000040000fa
:04031800740300006a
:020000040000fa
:04031c007403000066
:020000040000fa
:040320007403000062
:020000040000fa
:04032400740300005e
:020000040000fa
:04032800740300005a
:020000040000fa
:04032c0026030000a4
:020000040000fa
:040330007403000052
:020000040000fa
:04033400740300004e
:020000040000fa
:04033800740300004a
:020000040000fa
:04033c007403000046
:020000040000fa
:040340007403000042
:020000040000fa
:04034400740300003e
:020000040000fa
:04034800740300003a
:020000040000fa
:04034c007403000036
:020000040000fa
:040350007403000032
:020000040000fa
:04035400740300002e
:020000040000fa
:04035800740300002a
:020000040000fa
:04035c007403000026
:020000040000fa
:040360007403000022
:020000040000fa
:04036400740300001e
:020000040000fa
:04036800740300001a
:020000040000fa
:04036c007403000016
:020000040000fa
:040370007403000012
:020000040000fa
:04037400740300000e
:020000040000fa
:04037800740300000a
:020000040000fa
:04037c007403000006
:020000040000fa
:040380007403000002
:020000040000fa
:0403840074030000fe
:020000040000fa
:0403880074030000fa
:020000040000fa
:04038c0074030000f6
:020000040000fa
:0403900074030000f2
:020000040000fa
:0403940074030000ee
:020000040000fa
:0403980074030000ea
:020000040000fa
:04039c0074030000e6
:020000040000fa
:0403a00074030000e2
:020000040000fa
:0403a40074030000de
:020000040000fa
:0403a80074030000da
:020000040000fa
:0403ac0074030000d6
:020000040000fa
:0403b00074030000d2
:020000040000fa
:0403b40074030000ce
:020000040000fa
:0403b80074030000ca
:020000040000fa
:100400004f9821000eff27000e0188000000000019
:10041000000020000000e000020032000001200087
:100420002002880014000700d20007000000e0004e
:1004300003003a0060812000010020000200370024
:100440000000200001002000810f70000100320038
:1004500014000700000020000000e000020032004d
:1004600000000200000000008e07020000000000f3
:100470000040da000000fe004440a90020002000f7
:100480000000e0000300320010002000900188000e
:100490004440a800000006008a1f78008b1f7800e7
:1004a00000000600a1028800800478000000eb0034
:1004b0001f003700e284440054a0b4009905ba003c
:1004c000e284440054a0b4009906ba00e2844400d7
:1004d00054a0b4000006eb00476fde00fd07b20039
:1004e000ae018800636ce10003003a00eaff0700f8
:1004f0000000eb000e003700606ce10008003a00dd
:10050000004deb000a05e800020039003420ec0041
:100510000af0a0008b05e900f9ff3e000400370057
:100520006168e100010032000086eb000b0007006b
:1005300019c7ba001905ba000e04e00003003a001a
:100540000a00e000dbff3a0000000600fe07b200f0
:10055000ae0288008a047800f5ff37000cd0a300b3
:10056000e20f4d001c00390089027800354dba00b9
:100570000a05e800020039003420ec000af0a0006f
:100580008b05e9000f003200254dba000a05e8008e
:10059000020039003420ec000af0a0008b05e900cd
:1005a000080032000c00e0000600320015cdba0051
:1005b0000a05e800020039003420ec000af0a0002f
:1005c0008b05e9008984e80054a0b4000b00e0002a
:1005d000e2ff3a00000006009902ba00055d7800cb
:1005e0008b05e900f7ff3200c82ade00055d7800c0
:1005f0008b05e900f3ff32000c00e000f1ff320050
:1006000019ddba00eeff3700801f78003200f800d5
:100610003400f80010002000a00188001000200025
:10062000900188000000fa0030118000004078003e
:1006300000e8b7008560a9000080fa003400f900e6
:100640003200f9004f007800004006003200f80048
:100650003400f800881f780018002000a8018800e6
:1006600018002000980188004f0478000000fa006c
:100670002222a9008c20a9000080fa003400f90091
:100680003200f900004006000000fa008020a900b6
:10069000ffff37000000fa008060a900ffff37006d
:1006a0000000fa008040a900ffff37000000fa00b8
:1006b0008080a900ffff37000000fa008020a90019
:1006c000ffff37000000fa008060a900ffff37003d
:1006d0000000fa008040a900ffff37000000fa0088
:1006e0008080a900ffff37000040da000000fe0014
:1006f000889fbe0080047800104c80000000e0005d
:1007000004003a000e0007000084eb000000e00047
:1007100008003500184c80000900e0000500320098
:1007200009004400060007000000e00001003d0051
:100730000084eb00080078004f04be0000000600b3
:10074000800078000100e00003003a00409820009b
:10075000104c8800000005000080eb00429821004a
:10076000828f500002003e00114c88000000eb0018
:1007700000000600000005000098be000298be00c0
:100780000498be000698be000898be000a98be00f5
:100790000c98be000e18780064985700efb89700c8
:1007a00001187800ffb897000118780000000500d4
:1007b0000100e00001003a0011002000010878006b
:1007c0007c00400030077800b0077800b01f780048
:1007d000a01f7800640050004006be004005be0027
:1007e0004004be004003be004002be004001be0007
:1007f0004000be0000000600889fbe000004780094
:10080000e14b80000100e0000200320001007800ae
:100810000d003700f14b8000e09720000400370006
:10082000910f5400250036000180e80091009000ef
:100830000100e000faff3a0010003700920f540068
:100840001e0036000280e800100178000200e0007f
:10085000faff3a0011017800f14b8000e097200088
:1008600004003700910f5400140036000180e800a6
:1008700091009000828f5000faff3a00094c8000ee
:10088000888f540001003100880478000900780046
:10089000360007000000e00004003a00888f540092
:1008a000050032008904d100f5ff370009187800ef
:1008b00038000700d2ff37000000eb004f04be00f5
:1008c00000000600881f7800630440000800a100b3
:1008d0008000eb00800f540021003600e30f54002d
:1008e00001003e004800200008007800c2ff070019
:1008f0008000eb000000e00019003200900078005a
:100900009101780064815100880f5100030031008b
:1009100011019000020878000700370008814000ac
:1009200002087800910190001301980010017800ee
:100930001109140088087800100178000000eb000d
:100940000200e00004003200920190000300e00089
:10095000010032000280e800e04b88008180e8005e
:10096000010078004f047800000006008000780045
:100970000000eb000100e0000500340001007800f9
:100980005bff0700e10f400001003a000000eb00b0
:10099000000006000000e0002f003200c0017800d7
:1009a000e38f51002c0036000308a3002a003a0010
:1009b000f14b80000100e00002003200810f500086
:1009c0000400310011009800f04b88001600370039
:1009d00082007800110190000200e0000200320065
:1009e000800f5100faff3900110278008482400024
:1009f000850f500018003900808f520003003a0024
:100a00008308420001007800070037000200e00080
:100a10000300320083014000830f51000e003900b3
:100a20001200980090009800900090000100e000f3
:100a30000900320010014000828f500006003a0089
:100a4000c29720000009eb00100178001108410056
:0c0a5000910090001100980000000600ca
:020000040000fa
:100a5c000000fa00213a8000f0f32f0000806000c3
:100a6c00203a8800213a8000f08f2f00008060002f
:100a7c00203a880044a7a800ed04a900f102a900bf
:100a8c002135800000fc2f0000806000b000b30016
:100a9c00203588008136800000fc2f00008060002b
:100aac003000b300803688002062a80020022000ad
:100abc004011880021e2a8002342a8008560a9000b
:100acc009560a8008c20a9009c20a800a01780008d
:100adc004800de006140600000c0ea006140600038
:100aec000080fb00610060004800dd00a117800061
:100afc000180a10001007000a01788000080fa009e
:100b0c00000006000200fa00004f78000000000010
:100b1c001111800000202000008060000000e00027
:100b2c00fbff3a001e80fb00201188000080fa00b9
:100b3c00000006000200fa00881f78000040eb005d
:100b4c00004f78009e80fb00a00220000088b900b6
:100b5c00800078008082200000804000011020007e
:100b6c00010878009e80fb00a00220000088b900dc
:100b7c008000780020802000008040008000eb0086
:100b8c00211098009e80fb00a00220000088b90074
:100b9c008000780020802000008440009e80fb00b4
:100bac00a00220000088b90080007800208020007e
:100bbc0000804000301090003fff07004014980068
:100bcc009e80fb00a00220000088b9008000780005
:100bdc002080200000804000d04b88002095200011
:100bec00e2fe07000000e00023003a000080eb006a
:100bfc00000188009e80fb00a00220000088b90044
:100c0c008000780020802000008040004010900080
:100c1c00f00088009e80fb00a00220000088b90034
:100c2c008000780020802000008040004010900060
:100c3c00000178009e80fb00a00220000088b90013
:100c4c008000780020802000008040003010900050
:100c5c000000410064005000000188009e80fb00f1
:100c6c00a00220000088b9008000780020802000bd
:100c7c000080400058000700b04b80000001880045
:100c8c001e4fe8009e80fb00a00220000088b900e7
:100c9c00800078008082200000804000011020003d
:100cac00010878009e80fb00a00220000088b9009b
:100cbc008000780020802000008040008000eb0045
:100ccc00211098009e80fb00a00220000088b90033
:100cdc008000780020802000008440009e80fb0073
:100cec00a00220000088b90080007800208020003d
:100cfc000080400030109000effe07004014980078
:100d0c009e80fb00a00220000088b90080007800c3
:100d1c002080200000804000d04b880020952000cf
:100d2c0092fe07000000e00023003a000080eb0078
:100d3c00000188009e80fb00a00220000088b90002
:100d4c00800078002080200000804000401090003f
:100d5c00f00088009e80fb00a00220000088b900f3
:100d6c00800078002080200000804000401090001f
:100d7c00000178009e80fb00a00220000088b900d2
:100d8c00800078002080200000804000301090000f
:100d9c000000410064005000000188009e80fb00b0
:100dac00a00220000088b90080007800208020007c
:100dbc00008040002f000700b04b8000000188002d
:100dcc001e4fe800809720001e4878004f047800e2
:100ddc000080fa00000006000400fa0010079800da
:100dec000040eb00004f780000c8bf000004e0009a
:100dfc000a0034000180200091407800c0c4b30088
:100e0c0080cf500002003a0010c0b30001e8b700d8
:100e1c0000c8bf003bff07000068ef001e4fe80052
:100e2c00d04b80008000eb0021109800d04b80004c
:100e3c004efe07000000e00005003a000080eb00c9
:100e4c0000018800110020002095200055fe0700ad
:100e5c00d04b80004010900080007800d04b800078
:100e6c0030109000008040006400500000018800a9
:100e7c00ddff37000200fa00000f780001c8bf0048
:100e8c000004e0000d0034000168ef00a0178000a2
:100e9c004800de006140600000c0ea006140600074
:100eac000080fb00610060004800dd00a11780009d
:100ebc000180a10001007000a0178800d04b8000b9
:100ecc008000eb0021109800d04b800027fe07001b
:100edc000000e00005003a000080eb0000018800f3
:100eec0011002000209520002efe0700d04b800022
:100efc004010900080007800d04b800030109000a3
:100f0c00008040006400500000018800dbff3700c7
:100f1c000200fa0000018000b04b8800809720008e
:100f2c008040eb0001487800c9fe070001ff070074
:100f3c000040eb00004f7800340037009e80fb002f
:100f4c00a00220000088b9000000780041022000b7
:100f5c00808040002080200000804000100078003d
:100f6c000000e000110032001e81fb00a0022000f6
:100f7c000090b90000007800410220008080400001
:100f8c002080200000804000100078008001e900e3
:100f9c00a00220000090b900800078006082200040
:100fac000080400003087800170037009e80fb008b
:100fbc00a00220000088b90080007800208020006a
:100fcc0000804000d04b880020952000e7fd0700f2
:100fdc000000e0000a003a000080eb0000018800ed
:100fec009e80fb00a00220000088b90080007800e1
:100ffc00208020000080400011002000e9fd070047
:10100c00b04b8000000188001e4fe8008097200044
:10101c00104078009e4f5000c8ff3e00c4ff3700c0
:020000040000fa
:10102c00020800007a0100008000000000080000a7
:10103c000200000080000000800900000200000097
:10104c0082000000040000007c0900000400000085
:10105c0080000000820900000200000080000000f7
:04106c000000000080
:020000040000fa
:020000040005f5
:0457f400ffff0000b3
:020000040000fa
:020000040005f5
:0457f8009f99000075
:020000040000fa
:020000040005f5
:0457fc007f3f0000eb
:00000001FF
